{
  "_format": "hh-sol-artifact-1",
  "contractName": "ContribNFT",
  "sourceName": "contracts/ContribNFT.sol",
  "abi": [
    {
      "inputs": [
        {
          "internalType": "address",
          "name": "defaultAdmin",
          "type": "address"
        }
      ],
      "stateMutability": "nonpayable",
      "type": "constructor"
    },
    {
      "inputs": [],
      "name": "AccessControlBadConfirmation",
      "type": "error"
    },
    {
      "inputs": [
        {
          "internalType": "address",
          "name": "account",
          "type": "address"
        },
        {
          "internalType": "bytes32",
          "name": "neededRole",
          "type": "bytes32"
        }
      ],
      "name": "AccessControlUnauthorizedAccount",
      "type": "error"
    },
    {
      "inputs": [],
      "name": "ECDSAInvalidSignature",
      "type": "error"
    },
    {
      "inputs": [
        {
          "internalType": "uint256",
          "name": "length",
          "type": "uint256"
        }
      ],
      "name": "ECDSAInvalidSignatureLength",
      "type": "error"
    },
    {
      "inputs": [
        {
          "internalType": "bytes32",
          "name": "s",
          "type": "bytes32"
        }
      ],
      "name": "ECDSAInvalidSignatureS",
      "type": "error"
    },
    {
      "inputs": [
        {
          "internalType": "address",
          "name": "sender",
          "type": "address"
        },
        {
          "internalType": "uint256",
          "name": "tokenId",
          "type": "uint256"
        },
        {
          "internalType": "address",
          "name": "owner",
          "type": "address"
        }
      ],
      "name": "ERC721IncorrectOwner",
      "type": "error"
    },
    {
      "inputs": [
        {
          "internalType": "address",
          "name": "operator",
          "type": "address"
        },
        {
          "internalType": "uint256",
          "name": "tokenId",
          "type": "uint256"
        }
      ],
      "name": "ERC721InsufficientApproval",
      "type": "error"
    },
    {
      "inputs": [
        {
          "internalType": "address",
          "name": "approver",
          "type": "address"
        }
      ],
      "name": "ERC721InvalidApprover",
      "type": "error"
    },
    {
      "inputs": [
        {
          "internalType": "address",
          "name": "operator",
          "type": "address"
        }
      ],
      "name": "ERC721InvalidOperator",
      "type": "error"
    },
    {
      "inputs": [
        {
          "internalType": "address",
          "name": "owner",
          "type": "address"
        }
      ],
      "name": "ERC721InvalidOwner",
      "type": "error"
    },
    {
      "inputs": [
        {
          "internalType": "address",
          "name": "receiver",
          "type": "address"
        }
      ],
      "name": "ERC721InvalidReceiver",
      "type": "error"
    },
    {
      "inputs": [
        {
          "internalType": "address",
          "name": "sender",
          "type": "address"
        }
      ],
      "name": "ERC721InvalidSender",
      "type": "error"
    },
    {
      "inputs": [
        {
          "internalType": "uint256",
          "name": "tokenId",
          "type": "uint256"
        }
      ],
      "name": "ERC721NonexistentToken",
      "type": "error"
    },
    {
      "inputs": [],
      "name": "InvalidShortString",
      "type": "error"
    },
    {
      "inputs": [
        {
          "internalType": "string",
          "name": "str",
          "type": "string"
        }
      ],
      "name": "StringTooLong",
      "type": "error"
    },
    {
      "anonymous": false,
      "inputs": [
        {
          "indexed": true,
          "internalType": "address",
          "name": "owner",
          "type": "address"
        },
        {
          "indexed": true,
          "internalType": "address",
          "name": "approved",
          "type": "address"
        },
        {
          "indexed": true,
          "internalType": "uint256",
          "name": "tokenId",
          "type": "uint256"
        }
      ],
      "name": "Approval",
      "type": "event"
    },
    {
      "anonymous": false,
      "inputs": [
        {
          "indexed": true,
          "internalType": "address",
          "name": "owner",
          "type": "address"
        },
        {
          "indexed": true,
          "internalType": "address",
          "name": "operator",
          "type": "address"
        },
        {
          "indexed": false,
          "internalType": "bool",
          "name": "approved",
          "type": "bool"
        }
      ],
      "name": "ApprovalForAll",
      "type": "event"
    },
    {
      "anonymous": false,
      "inputs": [
        {
          "indexed": false,
          "internalType": "uint256",
          "name": "_fromTokenId",
          "type": "uint256"
        },
        {
          "indexed": false,
          "internalType": "uint256",
          "name": "_toTokenId",
          "type": "uint256"
        }
      ],
      "name": "BatchMetadataUpdate",
      "type": "event"
    },
    {
      "anonymous": false,
      "inputs": [
        {
          "indexed": true,
          "internalType": "address",
          "name": "to",
          "type": "address"
        },
        {
          "indexed": true,
          "internalType": "uint256",
          "name": "tokenId",
          "type": "uint256"
        },
        {
          "indexed": false,
          "internalType": "string",
          "name": "projectId",
          "type": "string"
        },
        {
          "indexed": false,
          "internalType": "string",
          "name": "prId",
          "type": "string"
        }
      ],
      "name": "ContribMinted",
      "type": "event"
    },
    {
      "anonymous": false,
      "inputs": [],
      "name": "EIP712DomainChanged",
      "type": "event"
    },
    {
      "anonymous": false,
      "inputs": [
        {
          "indexed": false,
          "internalType": "uint256",
          "name": "_tokenId",
          "type": "uint256"
        }
      ],
      "name": "MetadataUpdate",
      "type": "event"
    },
    {
      "anonymous": false,
      "inputs": [
        {
          "indexed": true,
          "internalType": "bytes32",
          "name": "role",
          "type": "bytes32"
        },
        {
          "indexed": true,
          "internalType": "bytes32",
          "name": "previousAdminRole",
          "type": "bytes32"
        },
        {
          "indexed": true,
          "internalType": "bytes32",
          "name": "newAdminRole",
          "type": "bytes32"
        }
      ],
      "name": "RoleAdminChanged",
      "type": "event"
    },
    {
      "anonymous": false,
      "inputs": [
        {
          "indexed": true,
          "internalType": "bytes32",
          "name": "role",
          "type": "bytes32"
        },
        {
          "indexed": true,
          "internalType": "address",
          "name": "account",
          "type": "address"
        },
        {
          "indexed": true,
          "internalType": "address",
          "name": "sender",
          "type": "address"
        }
      ],
      "name": "RoleGranted",
      "type": "event"
    },
    {
      "anonymous": false,
      "inputs": [
        {
          "indexed": true,
          "internalType": "bytes32",
          "name": "role",
          "type": "bytes32"
        },
        {
          "indexed": true,
          "internalType": "address",
          "name": "account",
          "type": "address"
        },
        {
          "indexed": true,
          "internalType": "address",
          "name": "sender",
          "type": "address"
        }
      ],
      "name": "RoleRevoked",
      "type": "event"
    },
    {
      "anonymous": false,
      "inputs": [
        {
          "indexed": true,
          "internalType": "address",
          "name": "from",
          "type": "address"
        },
        {
          "indexed": true,
          "internalType": "address",
          "name": "to",
          "type": "address"
        },
        {
          "indexed": true,
          "internalType": "uint256",
          "name": "tokenId",
          "type": "uint256"
        }
      ],
      "name": "Transfer",
      "type": "event"
    },
    {
      "inputs": [],
      "name": "DEFAULT_ADMIN_ROLE",
      "outputs": [
        {
          "internalType": "bytes32",
          "name": "",
          "type": "bytes32"
        }
      ],
      "stateMutability": "view",
      "type": "function"
    },
    {
      "inputs": [],
      "name": "MINTER_ROLE",
      "outputs": [
        {
          "internalType": "bytes32",
          "name": "",
          "type": "bytes32"
        }
      ],
      "stateMutability": "view",
      "type": "function"
    },
    {
      "inputs": [
        {
          "internalType": "address",
          "name": "to",
          "type": "address"
        },
        {
          "internalType": "uint256",
          "name": "tokenId",
          "type": "uint256"
        }
      ],
      "name": "approve",
      "outputs": [],
      "stateMutability": "nonpayable",
      "type": "function"
    },
    {
      "inputs": [
        {
          "internalType": "address",
          "name": "owner",
          "type": "address"
        }
      ],
      "name": "balanceOf",
      "outputs": [
        {
          "internalType": "uint256",
          "name": "",
          "type": "uint256"
        }
      ],
      "stateMutability": "view",
      "type": "function"
    },
    {
      "inputs": [],
      "name": "eip712Domain",
      "outputs": [
        {
          "internalType": "bytes1",
          "name": "fields",
          "type": "bytes1"
        },
        {
          "internalType": "string",
          "name": "name",
          "type": "string"
        },
        {
          "internalType": "string",
          "name": "version",
          "type": "string"
        },
        {
          "internalType": "uint256",
          "name": "chainId",
          "type": "uint256"
        },
        {
          "internalType": "address",
          "name": "verifyingContract",
          "type": "address"
        },
        {
          "internalType": "bytes32",
          "name": "salt",
          "type": "bytes32"
        },
        {
          "internalType": "uint256[]",
          "name": "extensions",
          "type": "uint256[]"
        }
      ],
      "stateMutability": "view",
      "type": "function"
    },
    {
      "inputs": [
        {
          "internalType": "uint256",
          "name": "tokenId",
          "type": "uint256"
        }
      ],
      "name": "getApproved",
      "outputs": [
        {
          "internalType": "address",
          "name": "",
          "type": "address"
        }
      ],
      "stateMutability": "view",
      "type": "function"
    },
    {
      "inputs": [
        {
          "internalType": "bytes32",
          "name": "role",
          "type": "bytes32"
        }
      ],
      "name": "getRoleAdmin",
      "outputs": [
        {
          "internalType": "bytes32",
          "name": "",
          "type": "bytes32"
        }
      ],
      "stateMutability": "view",
      "type": "function"
    },
    {
      "inputs": [
        {
          "internalType": "bytes32",
          "name": "role",
          "type": "bytes32"
        },
        {
          "internalType": "address",
          "name": "account",
          "type": "address"
        }
      ],
      "name": "grantRole",
      "outputs": [],
      "stateMutability": "nonpayable",
      "type": "function"
    },
    {
      "inputs": [
        {
          "internalType": "bytes32",
          "name": "",
          "type": "bytes32"
        }
      ],
      "name": "hasBeenMinted",
      "outputs": [
        {
          "internalType": "bool",
          "name": "",
          "type": "bool"
        }
      ],
      "stateMutability": "view",
      "type": "function"
    },
    {
      "inputs": [
        {
          "internalType": "bytes32",
          "name": "role",
          "type": "bytes32"
        },
        {
          "internalType": "address",
          "name": "account",
          "type": "address"
        }
      ],
      "name": "hasRole",
      "outputs": [
        {
          "internalType": "bool",
          "name": "",
          "type": "bool"
        }
      ],
      "stateMutability": "view",
      "type": "function"
    },
    {
      "inputs": [
        {
          "internalType": "address",
          "name": "owner",
          "type": "address"
        },
        {
          "internalType": "address",
          "name": "operator",
          "type": "address"
        }
      ],
      "name": "isApprovedForAll",
      "outputs": [
        {
          "internalType": "bool",
          "name": "",
          "type": "bool"
        }
      ],
      "stateMutability": "view",
      "type": "function"
    },
    {
      "inputs": [],
      "name": "name",
      "outputs": [
        {
          "internalType": "string",
          "name": "",
          "type": "string"
        }
      ],
      "stateMutability": "view",
      "type": "function"
    },
    {
      "inputs": [
        {
          "internalType": "uint256",
          "name": "tokenId",
          "type": "uint256"
        }
      ],
      "name": "ownerOf",
      "outputs": [
        {
          "internalType": "address",
          "name": "",
          "type": "address"
        }
      ],
      "stateMutability": "view",
      "type": "function"
    },
    {
      "inputs": [
        {
          "components": [
            {
              "internalType": "string",
              "name": "projectId",
              "type": "string"
            },
            {
              "internalType": "string",
              "name": "prId",
              "type": "string"
            },
            {
              "internalType": "string",
              "name": "metadataUri",
              "type": "string"
            },
            {
              "internalType": "address",
              "name": "minter",
              "type": "address"
            }
          ],
          "internalType": "struct ContribNFT.Voucher",
          "name": "voucher",
          "type": "tuple"
        },
        {
          "internalType": "bytes",
          "name": "signature",
          "type": "bytes"
        }
      ],
      "name": "redeem",
      "outputs": [],
      "stateMutability": "nonpayable",
      "type": "function"
    },
    {
      "inputs": [
        {
          "internalType": "bytes32",
          "name": "role",
          "type": "bytes32"
        },
        {
          "internalType": "address",
          "name": "callerConfirmation",
          "type": "address"
        }
      ],
      "name": "renounceRole",
      "outputs": [],
      "stateMutability": "nonpayable",
      "type": "function"
    },
    {
      "inputs": [
        {
          "internalType": "bytes32",
          "name": "role",
          "type": "bytes32"
        },
        {
          "internalType": "address",
          "name": "account",
          "type": "address"
        }
      ],
      "name": "revokeRole",
      "outputs": [],
      "stateMutability": "nonpayable",
      "type": "function"
    },
    {
      "inputs": [
        {
          "internalType": "address",
          "name": "from",
          "type": "address"
        },
        {
          "internalType": "address",
          "name": "to",
          "type": "address"
        },
        {
          "internalType": "uint256",
          "name": "tokenId",
          "type": "uint256"
        }
      ],
      "name": "safeTransferFrom",
      "outputs": [],
      "stateMutability": "nonpayable",
      "type": "function"
    },
    {
      "inputs": [
        {
          "internalType": "address",
          "name": "from",
          "type": "address"
        },
        {
          "internalType": "address",
          "name": "to",
          "type": "address"
        },
        {
          "internalType": "uint256",
          "name": "tokenId",
          "type": "uint256"
        },
        {
          "internalType": "bytes",
          "name": "data",
          "type": "bytes"
        }
      ],
      "name": "safeTransferFrom",
      "outputs": [],
      "stateMutability": "nonpayable",
      "type": "function"
    },
    {
      "inputs": [
        {
          "internalType": "address",
          "name": "operator",
          "type": "address"
        },
        {
          "internalType": "bool",
          "name": "approved",
          "type": "bool"
        }
      ],
      "name": "setApprovalForAll",
      "outputs": [],
      "stateMutability": "nonpayable",
      "type": "function"
    },
    {
      "inputs": [
        {
          "internalType": "bytes4",
          "name": "interfaceId",
          "type": "bytes4"
        }
      ],
      "name": "supportsInterface",
      "outputs": [
        {
          "internalType": "bool",
          "name": "",
          "type": "bool"
        }
      ],
      "stateMutability": "view",
      "type": "function"
    },
    {
      "inputs": [],
      "name": "symbol",
      "outputs": [
        {
          "internalType": "string",
          "name": "",
          "type": "string"
        }
      ],
      "stateMutability": "view",
      "type": "function"
    },
    {
      "inputs": [
        {
          "internalType": "uint256",
          "name": "tokenId",
          "type": "uint256"
        }
      ],
      "name": "tokenURI",
      "outputs": [
        {
          "internalType": "string",
          "name": "",
          "type": "string"
        }
      ],
      "stateMutability": "view",
      "type": "function"
    },
    {
      "inputs": [
        {
          "internalType": "address",
          "name": "from",
          "type": "address"
        },
        {
          "internalType": "address",
          "name": "to",
          "type": "address"
        },
        {
          "internalType": "uint256",
          "name": "tokenId",
          "type": "uint256"
        }
      ],
      "name": "transferFrom",
      "outputs": [],
      "stateMutability": "nonpayable",
      "type": "function"
    }
  ],
  "bytecode": "0x6101606040523480156200001257600080fd5b50604051620046ab380380620046ab833981810160405281019062000038919062000543565b6040518060400160405280600b81526020017f436f6e747269624d696e740000000000000000000000000000000000000000008152506040518060400160405280600181526020017f31000000000000000000000000000000000000000000000000000000000000008152506040518060400160405280600b81526020017f436f6e747269624d696e740000000000000000000000000000000000000000008152506040518060400160405280600581526020017f434e5452420000000000000000000000000000000000000000000000000000008152508160009081620001219190620007ef565b508060019081620001339190620007ef565b5050506200014c6008836200023660201b90919060201c565b61012081815250506200016a6009826200023660201b90919060201c565b6101408181525050818051906020012060e08181525050808051906020012061010081815250504660a08181525050620001a96200028e60201b60201c565b608081815250503073ffffffffffffffffffffffffffffffffffffffff1660c08173ffffffffffffffffffffffffffffffffffffffff16815250505050620001fb6000801b82620002eb60201b60201c565b506200022e7f9f2df0fed2c77648de5860a4cc508cd0818c85b8b8a1ab4ceeef8d981c8956a682620002eb60201b60201c565b505062000ac5565b60006020835110156200025c576200025483620003ef60201b60201c565b905062000288565b826200026e836200045c60201b60201c565b60000190816200027f9190620007ef565b5060ff60001b90505b92915050565b60007f8b73c3c69bb8fe3d512ecc4cf759cc79239f7b179b0ffacaa9a75d522b39400f60e051610100514630604051602001620002d095949392919062000913565b60405160208183030381529060405280519060200120905090565b6000620002ff83836200046660201b60201c565b620003e45760016007600085815260200190815260200160002060000160008473ffffffffffffffffffffffffffffffffffffffff1673ffffffffffffffffffffffffffffffffffffffff16815260200190815260200160002060006101000a81548160ff02191690831515021790555062000380620004d160201b60201c565b73ffffffffffffffffffffffffffffffffffffffff168273ffffffffffffffffffffffffffffffffffffffff16847f2f8788117e7eff1d82e926ec794901d17c78024a50270940304540a733656f0d60405160405180910390a460019050620003e9565b600090505b92915050565b600080829050601f815111156200043f57826040517f305a27a9000000000000000000000000000000000000000000000000000000008152600401620004369190620009ff565b60405180910390fd5b8051816200044d9062000a55565b60001c1760001b915050919050565b6000819050919050565b60006007600084815260200190815260200160002060000160008373ffffffffffffffffffffffffffffffffffffffff1673ffffffffffffffffffffffffffffffffffffffff16815260200190815260200160002060009054906101000a900460ff16905092915050565b600033905090565b600080fd5b600073ffffffffffffffffffffffffffffffffffffffff82169050919050565b60006200050b82620004de565b9050919050565b6200051d81620004fe565b81146200052957600080fd5b50565b6000815190506200053d8162000512565b92915050565b6000602082840312156200055c576200055b620004d9565b5b60006200056c848285016200052c565b91505092915050565b600081519050919050565b7f4e487b7100000000000000000000000000000000000000000000000000000000600052604160045260246000fd5b7f4e487b7100000000000000000000000000000000000000000000000000000000600052602260045260246000fd5b60006002820490506001821680620005f757607f821691505b6020821081036200060d576200060c620005af565b5b50919050565b60008190508160005260206000209050919050565b60006020601f8301049050919050565b600082821b905092915050565b600060088302620006777fffffffffffffffffffffffffffffffffffffffffffffffffffffffffffffffff8262000638565b62000683868362000638565b95508019841693508086168417925050509392505050565b6000819050919050565b6000819050919050565b6000620006d0620006ca620006c4846200069b565b620006a5565b6200069b565b9050919050565b6000819050919050565b620006ec83620006af565b62000704620006fb82620006d7565b84845462000645565b825550505050565b600090565b6200071b6200070c565b62000728818484620006e1565b505050565b5b8181101562000750576200074460008262000711565b6001810190506200072e565b5050565b601f8211156200079f57620007698162000613565b620007748462000628565b8101602085101562000784578190505b6200079c620007938562000628565b8301826200072d565b50505b505050565b600082821c905092915050565b6000620007c460001984600802620007a4565b1980831691505092915050565b6000620007df8383620007b1565b9150826002028217905092915050565b620007fa8262000575565b67ffffffffffffffff81111562000816576200081562000580565b5b620008228254620005de565b6200082f82828562000754565b600060209050601f83116001811462000867576000841562000852578287015190505b6200085e8582620007d1565b865550620008ce565b601f198416620008778662000613565b60005b82811015620008a1578489015182556001820191506020850194506020810190506200087a565b86831015620008c15784890151620008bd601f891682620007b1565b8355505b6001600288020188555050505b505050505050565b6000819050919050565b620008eb81620008d6565b82525050565b620008fc816200069b565b82525050565b6200090d81620004fe565b82525050565b600060a0820190506200092a6000830188620008e0565b620009396020830187620008e0565b620009486040830186620008e0565b620009576060830185620008f1565b62000966608083018462000902565b9695505050505050565b600082825260208201905092915050565b60005b83811015620009a157808201518184015260208101905062000984565b60008484015250505050565b6000601f19601f8301169050919050565b6000620009cb8262000575565b620009d7818562000970565b9350620009e981856020860162000981565b620009f481620009ad565b840191505092915050565b6000602082019050818103600083015262000a1b8184620009be565b905092915050565b600081519050919050565b6000819050602082019050919050565b600062000a4c8251620008d6565b80915050919050565b600062000a628262000a23565b8262000a6e8462000a2e565b905062000a7b8162000a3e565b9250602082101562000abe5762000ab97fffffffffffffffffffffffffffffffffffffffffffffffffffffffffffffffff8360200360080262000638565b831692505b5050919050565b60805160a05160c05160e051610100516101205161014051613b8b62000b206000396000611660015260006116250152600061275d0152600061273c015260006121390152600061218f015260006121b80152613b8b6000f3fe608060405234801561001057600080fd5b506004361061014d5760003560e01c806370a08231116100c3578063b88d4fde1161007c578063b88d4fde146103b4578063c87b56dd146103d0578063d539139314610400578063d547741f1461041e578063e985e9c51461043a578063ff522c7a1461046a5761014d565b806370a08231146102d857806384b0196e1461030857806391d148541461032c57806395d89b411461035c578063a217fddf1461037a578063a22cb465146103985761014d565b8063248a9ca311610115578063248a9ca3146102085780632f2ff15d1461023857806336568abe1461025457806342842e0e146102705780634d83074d1461028c5780636352211e146102a85761014d565b806301ffc9a71461015257806306fdde0314610182578063081812fc146101a0578063095ea7b3146101d057806323b872dd146101ec575b600080fd5b61016c6004803603810190610167919061295d565b61049a565b60405161017991906129a5565b60405180910390f35b61018a6104ac565b6040516101979190612a50565b60405180910390f35b6101ba60048036038101906101b59190612aa8565b61053e565b6040516101c79190612b16565b60405180910390f35b6101ea60048036038101906101e59190612b5d565b61055a565b005b61020660048036038101906102019190612b9d565b610570565b005b610222600480360381019061021d9190612c26565b610672565b60405161022f9190612c62565b60405180910390f35b610252600480360381019061024d9190612c7d565b610692565b005b61026e60048036038101906102699190612c7d565b6106b4565b005b61028a60048036038101906102859190612b9d565b61072f565b005b6102a660048036038101906102a19190612d46565b61074f565b005b6102c260048036038101906102bd9190612aa8565b610a3f565b6040516102cf9190612b16565b60405180910390f35b6102f260048036038101906102ed9190612dc2565b610a51565b6040516102ff9190612dfe565b60405180910390f35b610310610b0b565b6040516103239796959493929190612f12565b60405180910390f35b61034660048036038101906103419190612c7d565b610bb5565b60405161035391906129a5565b60405180910390f35b610364610c20565b6040516103719190612a50565b60405180910390f35b610382610cb2565b60405161038f9190612c62565b60405180910390f35b6103b260048036038101906103ad9190612fc2565b610cb9565b005b6103ce60048036038101906103c99190613132565b610ccf565b005b6103ea60048036038101906103e59190612aa8565b610cf4565b6040516103f79190612a50565b60405180910390f35b610408610e07565b6040516104159190612c62565b60405180910390f35b61043860048036038101906104339190612c7d565b610e2b565b005b610454600480360381019061044f91906131b5565b610e4d565b60405161046191906129a5565b60405180910390f35b610484600480360381019061047f9190612c26565b610ee1565b60405161049191906129a5565b60405180910390f35b60006104a582610f01565b9050919050565b6060600080546104bb90613224565b80601f01602080910402602001604051908101604052809291908181526020018280546104e790613224565b80156105345780601f1061050957610100808354040283529160200191610534565b820191906000526020600020905b81548152906001019060200180831161051757829003601f168201915b5050505050905090565b600061054982610f7b565b5061055382611003565b9050919050565b61056c8282610567611040565b611048565b5050565b600073ffffffffffffffffffffffffffffffffffffffff168273ffffffffffffffffffffffffffffffffffffffff16036105e25760006040517f64a0ae920000000000000000000000000000000000000000000000000000000081526004016105d99190612b16565b60405180910390fd5b60006105f683836105f1611040565b61105a565b90508373ffffffffffffffffffffffffffffffffffffffff168173ffffffffffffffffffffffffffffffffffffffff161461066c578382826040517f64283d7b00000000000000000000000000000000000000000000000000000000815260040161066393929190613255565b60405180910390fd5b50505050565b600060076000838152602001908152602001600020600101549050919050565b61069b82610672565b6106a481611274565b6106ae8383611288565b50505050565b6106bc611040565b73ffffffffffffffffffffffffffffffffffffffff168173ffffffffffffffffffffffffffffffffffffffff1614610720576040517f6697b23200000000000000000000000000000000000000000000000000000000815260040160405180910390fd5b61072a828261137a565b505050565b61074a83838360405180602001604052806000815250610ccf565b505050565b600061075c84848461146d565b90506107887f9f2df0fed2c77648de5860a4cc508cd0818c85b8b8a1ab4ceeef8d981c8956a682610bb5565b6107c7576040517f08c379a00000000000000000000000000000000000000000000000000000000081526004016107be906132fe565b60405180910390fd5b3373ffffffffffffffffffffffffffffffffffffffff168460600160208101906107f19190612dc2565b73ffffffffffffffffffffffffffffffffffffffff1614610847576040517f08c379a000000000000000000000000000000000000000000000000000000000815260040161083e9061336a565b60405180910390fd5b60008480600001906108599190613399565b8680602001906108699190613399565b60405160200161087c949392919061342c565b604051602081830303815290604052805190602001209050600b600082815260200190815260200160002060009054906101000a900460ff16156108f5576040517f08c379a00000000000000000000000000000000000000000000000000000000081526004016108ec906134a0565b60405180910390fd5b6001600b600083815260200190815260200160002060006101000a81548160ff0219169083151502179055506000600a6000815480929190610936906134ef565b9190505590506109588660600160208101906109529190612dc2565b826115a2565b6109b48187806040019061096c9190613399565b8080601f016020809104026020016040519081016040528093929190818152602001838380828437600081840152601f19601f820116905080830192505050505050506115c0565b808660600160208101906109c89190612dc2565b73ffffffffffffffffffffffffffffffffffffffff167f0b34e8d8c9f26f4b74574a8d67b32206e564d4528eed0dda80334d28b3d1607c888060000190610a0f9190613399565b8a8060200190610a1f9190613399565b604051610a2f9493929190613564565b60405180910390a3505050505050565b6000610a4a82610f7b565b9050919050565b60008073ffffffffffffffffffffffffffffffffffffffff168273ffffffffffffffffffffffffffffffffffffffff1603610ac45760006040517f89c62b64000000000000000000000000000000000000000000000000000000008152600401610abb9190612b16565b60405180910390fd5b600360008373ffffffffffffffffffffffffffffffffffffffff1673ffffffffffffffffffffffffffffffffffffffff168152602001908152602001600020549050919050565b600060608060008060006060610b1f61161c565b610b27611657565b46306000801b600067ffffffffffffffff811115610b4857610b47613007565b5b604051908082528060200260200182016040528015610b765781602001602082028036833780820191505090505b507f0f00000000000000000000000000000000000000000000000000000000000000959493929190965096509650965096509650965090919293949596565b60006007600084815260200190815260200160002060000160008373ffffffffffffffffffffffffffffffffffffffff1673ffffffffffffffffffffffffffffffffffffffff16815260200190815260200160002060009054906101000a900460ff16905092915050565b606060018054610c2f90613224565b80601f0160208091040260200160405190810160405280929190818152602001828054610c5b90613224565b8015610ca85780601f10610c7d57610100808354040283529160200191610ca8565b820191906000526020600020905b815481529060010190602001808311610c8b57829003601f168201915b5050505050905090565b6000801b81565b610ccb610cc4611040565b8383611692565b5050565b610cda848484610570565b610cee610ce5611040565b85858585611801565b50505050565b6060610cff82610f7b565b506000600660008481526020019081526020016000208054610d2090613224565b80601f0160208091040260200160405190810160405280929190818152602001828054610d4c90613224565b8015610d995780601f10610d6e57610100808354040283529160200191610d99565b820191906000526020600020905b815481529060010190602001808311610d7c57829003601f168201915b505050505090506000610daa6119b2565b90506000815103610dbf578192505050610e02565b600082511115610df4578082604051602001610ddc9291906135d0565b60405160208183030381529060405292505050610e02565b610dfd846119c9565b925050505b919050565b7f9f2df0fed2c77648de5860a4cc508cd0818c85b8b8a1ab4ceeef8d981c8956a681565b610e3482610672565b610e3d81611274565b610e47838361137a565b50505050565b6000600560008473ffffffffffffffffffffffffffffffffffffffff1673ffffffffffffffffffffffffffffffffffffffff16815260200190815260200160002060008373ffffffffffffffffffffffffffffffffffffffff1673ffffffffffffffffffffffffffffffffffffffff16815260200190815260200160002060009054906101000a900460ff16905092915050565b600b6020528060005260406000206000915054906101000a900460ff1681565b60007f7965db0b000000000000000000000000000000000000000000000000000000007bffffffffffffffffffffffffffffffffffffffffffffffffffffffff1916827bffffffffffffffffffffffffffffffffffffffffffffffffffffffff19161480610f745750610f7382611a32565b5b9050919050565b600080610f8783611a93565b9050600073ffffffffffffffffffffffffffffffffffffffff168173ffffffffffffffffffffffffffffffffffffffff1603610ffa57826040517f7e273289000000000000000000000000000000000000000000000000000000008152600401610ff19190612dfe565b60405180910390fd5b80915050919050565b60006004600083815260200190815260200160002060009054906101000a900473ffffffffffffffffffffffffffffffffffffffff169050919050565b600033905090565b6110558383836001611ad0565b505050565b60008061106684611a93565b9050600073ffffffffffffffffffffffffffffffffffffffff168373ffffffffffffffffffffffffffffffffffffffff16146110a8576110a7818486611c95565b5b600073ffffffffffffffffffffffffffffffffffffffff168173ffffffffffffffffffffffffffffffffffffffff1614611139576110ea600085600080611ad0565b6001600360008373ffffffffffffffffffffffffffffffffffffffff1673ffffffffffffffffffffffffffffffffffffffff168152602001908152602001600020600082825403925050819055505b600073ffffffffffffffffffffffffffffffffffffffff168573ffffffffffffffffffffffffffffffffffffffff16146111bc576001600360008773ffffffffffffffffffffffffffffffffffffffff1673ffffffffffffffffffffffffffffffffffffffff168152602001908152602001600020600082825401925050819055505b846002600086815260200190815260200160002060006101000a81548173ffffffffffffffffffffffffffffffffffffffff021916908373ffffffffffffffffffffffffffffffffffffffff160217905550838573ffffffffffffffffffffffffffffffffffffffff168273ffffffffffffffffffffffffffffffffffffffff167fddf252ad1be2c89b69c2b068fc378daa952ba7f163c4a11628f55a4df523b3ef60405160405180910390a4809150509392505050565b61128581611280611040565b611d59565b50565b60006112948383610bb5565b61136f5760016007600085815260200190815260200160002060000160008473ffffffffffffffffffffffffffffffffffffffff1673ffffffffffffffffffffffffffffffffffffffff16815260200190815260200160002060006101000a81548160ff02191690831515021790555061130c611040565b73ffffffffffffffffffffffffffffffffffffffff168273ffffffffffffffffffffffffffffffffffffffff16847f2f8788117e7eff1d82e926ec794901d17c78024a50270940304540a733656f0d60405160405180910390a460019050611374565b600090505b92915050565b60006113868383610bb5565b156114625760006007600085815260200190815260200160002060000160008473ffffffffffffffffffffffffffffffffffffffff1673ffffffffffffffffffffffffffffffffffffffff16815260200190815260200160002060006101000a81548160ff0219169083151502179055506113ff611040565b73ffffffffffffffffffffffffffffffffffffffff168273ffffffffffffffffffffffffffffffffffffffff16847ff6391f5c32d9c69d2a47ea670b442974b53935d1edc7fd64eb21e047a839171b60405160405180910390a460019050611467565b600090505b92915050565b6000806115487fd65aa8591bb3088a116cbc359f45b0a18f8fc634f182dcaa2363a503b8004bb08680600001906114a49190613399565b6040516114b2929190613624565b60405180910390208780602001906114ca9190613399565b6040516114d8929190613624565b60405180910390208880604001906114f09190613399565b6040516114fe929190613624565b60405180910390208960600160208101906115199190612dc2565b60405160200161152d95949392919061363d565b60405160208183030381529060405280519060200120611daa565b90506115988185858080601f016020809104026020016040519081016040528093929190818152602001838380828437600081840152601f19601f82011690508083019250505050505050611dc4565b9150509392505050565b6115bc828260405180602001604052806000815250611df0565b5050565b806006600084815260200190815260200160002090816115e0919061383c565b507ff8e1a15aba9398e019f0b49df1a4fde98ee17ae345cb5f6b5e2c27f5033e8ce7826040516116109190612dfe565b60405180910390a15050565b606061165260087f0000000000000000000000000000000000000000000000000000000000000000611e1490919063ffffffff16565b905090565b606061168d60097f0000000000000000000000000000000000000000000000000000000000000000611e1490919063ffffffff16565b905090565b600073ffffffffffffffffffffffffffffffffffffffff168273ffffffffffffffffffffffffffffffffffffffff160361170357816040517f5b08ba180000000000000000000000000000000000000000000000000000000081526004016116fa9190612b16565b60405180910390fd5b80600560008573ffffffffffffffffffffffffffffffffffffffff1673ffffffffffffffffffffffffffffffffffffffff16815260200190815260200160002060008473ffffffffffffffffffffffffffffffffffffffff1673ffffffffffffffffffffffffffffffffffffffff16815260200190815260200160002060006101000a81548160ff0219169083151502179055508173ffffffffffffffffffffffffffffffffffffffff168373ffffffffffffffffffffffffffffffffffffffff167f17307eab39ab6107e8899845ad3d59bd9653f200f220920489ca2b5937696c31836040516117f491906129a5565b60405180910390a3505050565b60008373ffffffffffffffffffffffffffffffffffffffff163b11156119ab578273ffffffffffffffffffffffffffffffffffffffff1663150b7a02868685856040518563ffffffff1660e01b81526004016118609493929190613963565b6020604051808303816000875af192505050801561189c57506040513d601f19601f8201168201806040525081019061189991906139c4565b60015b611920573d80600081146118cc576040519150601f19603f3d011682016040523d82523d6000602084013e6118d1565b606091505b50600081510361191857836040517f64a0ae9200000000000000000000000000000000000000000000000000000000815260040161190f9190612b16565b60405180910390fd5b805160208201fd5b63150b7a0260e01b7bffffffffffffffffffffffffffffffffffffffffffffffffffffffff1916817bffffffffffffffffffffffffffffffffffffffffffffffffffffffff1916146119a957836040517f64a0ae920000000000000000000000000000000000000000000000000000000081526004016119a09190612b16565b60405180910390fd5b505b5050505050565b606060405180602001604052806000815250905090565b60606119d482610f7b565b5060006119df6119b2565b905060008151116119ff5760405180602001604052806000815250611a2a565b80611a0984611ec4565b604051602001611a1a9291906135d0565b6040516020818303038152906040525b915050919050565b6000634906490660e01b7bffffffffffffffffffffffffffffffffffffffffffffffffffffffff1916827bffffffffffffffffffffffffffffffffffffffffffffffffffffffff19161480611a8c5750611a8b82611f92565b5b9050919050565b60006002600083815260200190815260200160002060009054906101000a900473ffffffffffffffffffffffffffffffffffffffff169050919050565b8080611b095750600073ffffffffffffffffffffffffffffffffffffffff168273ffffffffffffffffffffffffffffffffffffffff1614155b15611c3d576000611b1984610f7b565b9050600073ffffffffffffffffffffffffffffffffffffffff168373ffffffffffffffffffffffffffffffffffffffff1614158015611b8457508273ffffffffffffffffffffffffffffffffffffffff168173ffffffffffffffffffffffffffffffffffffffff1614155b8015611b975750611b958184610e4d565b155b15611bd957826040517fa9fbf51f000000000000000000000000000000000000000000000000000000008152600401611bd09190612b16565b60405180910390fd5b8115611c3b57838573ffffffffffffffffffffffffffffffffffffffff168273ffffffffffffffffffffffffffffffffffffffff167f8c5be1e5ebec7d5bd14f71427d1e84f3dd0314c0f7b2291e5b200ac8c7c3b92560405160405180910390a45b505b836004600085815260200190815260200160002060006101000a81548173ffffffffffffffffffffffffffffffffffffffff021916908373ffffffffffffffffffffffffffffffffffffffff16021790555050505050565b611ca0838383612074565b611d5457600073ffffffffffffffffffffffffffffffffffffffff168373ffffffffffffffffffffffffffffffffffffffff1603611d1557806040517f7e273289000000000000000000000000000000000000000000000000000000008152600401611d0c9190612dfe565b60405180910390fd5b81816040517f177e802f000000000000000000000000000000000000000000000000000000008152600401611d4b9291906139f1565b60405180910390fd5b505050565b611d638282610bb5565b611da65780826040517fe2517d3f000000000000000000000000000000000000000000000000000000008152600401611d9d929190613a1a565b60405180910390fd5b5050565b6000611dbd611db7612135565b836121ec565b9050919050565b600080600080611dd4868661222d565b925092509250611de48282612289565b82935050505092915050565b611dfa83836123ed565b611e0f611e05611040565b6000858585611801565b505050565b606060ff60001b8314611e3157611e2a836124e6565b9050611ebe565b818054611e3d90613224565b80601f0160208091040260200160405190810160405280929190818152602001828054611e6990613224565b8015611eb65780601f10611e8b57610100808354040283529160200191611eb6565b820191906000526020600020905b815481529060010190602001808311611e9957829003601f168201915b505050505090505b92915050565b606060006001611ed38461255a565b01905060008167ffffffffffffffff811115611ef257611ef1613007565b5b6040519080825280601f01601f191660200182016040528015611f245781602001600182028036833780820191505090505b509050600082602083010190505b600115611f87578080600190039150507f3031323334353637383961626364656600000000000000000000000000000000600a86061a8153600a8581611f7b57611f7a613a43565b5b04945060008503611f32575b819350505050919050565b60007f80ac58cd000000000000000000000000000000000000000000000000000000007bffffffffffffffffffffffffffffffffffffffffffffffffffffffff1916827bffffffffffffffffffffffffffffffffffffffffffffffffffffffff1916148061205d57507f5b5e139f000000000000000000000000000000000000000000000000000000007bffffffffffffffffffffffffffffffffffffffffffffffffffffffff1916827bffffffffffffffffffffffffffffffffffffffffffffffffffffffff1916145b8061206d575061206c826126ad565b5b9050919050565b60008073ffffffffffffffffffffffffffffffffffffffff168373ffffffffffffffffffffffffffffffffffffffff161415801561212c57508273ffffffffffffffffffffffffffffffffffffffff168473ffffffffffffffffffffffffffffffffffffffff1614806120ed57506120ec8484610e4d565b5b8061212b57508273ffffffffffffffffffffffffffffffffffffffff1661211383611003565b73ffffffffffffffffffffffffffffffffffffffff16145b5b90509392505050565b60007f000000000000000000000000000000000000000000000000000000000000000073ffffffffffffffffffffffffffffffffffffffff163073ffffffffffffffffffffffffffffffffffffffff161480156121b157507f000000000000000000000000000000000000000000000000000000000000000046145b156121de577f000000000000000000000000000000000000000000000000000000000000000090506121e9565b6121e6612717565b90505b90565b60006040517f190100000000000000000000000000000000000000000000000000000000000081528360028201528260228201526042812091505092915050565b600080600060418451036122725760008060006020870151925060408701519150606087015160001a9050612264888285856127ad565b955095509550505050612282565b60006002855160001b9250925092505b9250925092565b6000600381111561229d5761229c613a72565b5b8260038111156122b0576122af613a72565b5b03156123e957600160038111156122ca576122c9613a72565b5b8260038111156122dd576122dc613a72565b5b03612314576040517ff645eedf00000000000000000000000000000000000000000000000000000000815260040160405180910390fd5b6002600381111561232857612327613a72565b5b82600381111561233b5761233a613a72565b5b03612380578060001c6040517ffce698f70000000000000000000000000000000000000000000000000000000081526004016123779190612dfe565b60405180910390fd5b60038081111561239357612392613a72565b5b8260038111156123a6576123a5613a72565b5b036123e857806040517fd78bce0c0000000000000000000000000000000000000000000000000000000081526004016123df9190612c62565b60405180910390fd5b5b5050565b600073ffffffffffffffffffffffffffffffffffffffff168273ffffffffffffffffffffffffffffffffffffffff160361245f5760006040517f64a0ae920000000000000000000000000000000000000000000000000000000081526004016124569190612b16565b60405180910390fd5b600061246d8383600061105a565b9050600073ffffffffffffffffffffffffffffffffffffffff168173ffffffffffffffffffffffffffffffffffffffff16146124e15760006040517f73c6ac6e0000000000000000000000000000000000000000000000000000000081526004016124d89190612b16565b60405180910390fd5b505050565b606060006124f3836128a1565b90506000602067ffffffffffffffff81111561251257612511613007565b5b6040519080825280601f01601f1916602001820160405280156125445781602001600182028036833780820191505090505b5090508181528360208201528092505050919050565b600080600090507a184f03e93ff9f4daa797ed6e38ed64bf6a1f01000000000000000083106125b8577a184f03e93ff9f4daa797ed6e38ed64bf6a1f01000000000000000083816125ae576125ad613a43565b5b0492506040810190505b6d04ee2d6d415b85acef810000000083106125f5576d04ee2d6d415b85acef810000000083816125eb576125ea613a43565b5b0492506020810190505b662386f26fc10000831061262457662386f26fc10000838161261a57612619613a43565b5b0492506010810190505b6305f5e100831061264d576305f5e100838161264357612642613a43565b5b0492506008810190505b612710831061267257612710838161266857612667613a43565b5b0492506004810190505b60648310612695576064838161268b5761268a613a43565b5b0492506002810190505b600a83106126a4576001810190505b80915050919050565b60007f01ffc9a7000000000000000000000000000000000000000000000000000000007bffffffffffffffffffffffffffffffffffffffffffffffffffffffff1916827bffffffffffffffffffffffffffffffffffffffffffffffffffffffff1916149050919050565b60007f8b73c3c69bb8fe3d512ecc4cf759cc79239f7b179b0ffacaa9a75d522b39400f7f00000000000000000000000000000000000000000000000000000000000000007f00000000000000000000000000000000000000000000000000000000000000004630604051602001612792959493929190613aa1565b60405160208183030381529060405280519060200120905090565b60008060007f7fffffffffffffffffffffffffffffff5d576e7357a4501ddfe92f46681b20a08460001c11156127ed576000600385925092509250612897565b6000600188888888604051600081526020016040526040516128129493929190613b10565b6020604051602081039080840390855afa158015612834573d6000803e3d6000fd5b505050602060405103519050600073ffffffffffffffffffffffffffffffffffffffff168173ffffffffffffffffffffffffffffffffffffffff160361288857600060016000801b93509350935050612897565b8060008060001b935093509350505b9450945094915050565b60008060ff8360001c169050601f8111156128e8576040517fb3512b0c00000000000000000000000000000000000000000000000000000000815260040160405180910390fd5b80915050919050565b6000604051905090565b600080fd5b600080fd5b60007fffffffff0000000000000000000000000000000000000000000000000000000082169050919050565b61293a81612905565b811461294557600080fd5b50565b60008135905061295781612931565b92915050565b600060208284031215612973576129726128fb565b5b600061298184828501612948565b91505092915050565b60008115159050919050565b61299f8161298a565b82525050565b60006020820190506129ba6000830184612996565b92915050565b600081519050919050565b600082825260208201905092915050565b60005b838110156129fa5780820151818401526020810190506129df565b60008484015250505050565b6000601f19601f8301169050919050565b6000612a22826129c0565b612a2c81856129cb565b9350612a3c8185602086016129dc565b612a4581612a06565b840191505092915050565b60006020820190508181036000830152612a6a8184612a17565b905092915050565b6000819050919050565b612a8581612a72565b8114612a9057600080fd5b50565b600081359050612aa281612a7c565b92915050565b600060208284031215612abe57612abd6128fb565b5b6000612acc84828501612a93565b91505092915050565b600073ffffffffffffffffffffffffffffffffffffffff82169050919050565b6000612b0082612ad5565b9050919050565b612b1081612af5565b82525050565b6000602082019050612b2b6000830184612b07565b92915050565b612b3a81612af5565b8114612b4557600080fd5b50565b600081359050612b5781612b31565b92915050565b60008060408385031215612b7457612b736128fb565b5b6000612b8285828601612b48565b9250506020612b9385828601612a93565b9150509250929050565b600080600060608486031215612bb657612bb56128fb565b5b6000612bc486828701612b48565b9350506020612bd586828701612b48565b9250506040612be686828701612a93565b9150509250925092565b6000819050919050565b612c0381612bf0565b8114612c0e57600080fd5b50565b600081359050612c2081612bfa565b92915050565b600060208284031215612c3c57612c3b6128fb565b5b6000612c4a84828501612c11565b91505092915050565b612c5c81612bf0565b82525050565b6000602082019050612c776000830184612c53565b92915050565b60008060408385031215612c9457612c936128fb565b5b6000612ca285828601612c11565b9250506020612cb385828601612b48565b9150509250929050565b600080fd5b600060808284031215612cd857612cd7612cbd565b5b81905092915050565b600080fd5b600080fd5b600080fd5b60008083601f840112612d0657612d05612ce1565b5b8235905067ffffffffffffffff811115612d2357612d22612ce6565b5b602083019150836001820283011115612d3f57612d3e612ceb565b5b9250929050565b600080600060408486031215612d5f57612d5e6128fb565b5b600084013567ffffffffffffffff811115612d7d57612d7c612900565b5b612d8986828701612cc2565b935050602084013567ffffffffffffffff811115612daa57612da9612900565b5b612db686828701612cf0565b92509250509250925092565b600060208284031215612dd857612dd76128fb565b5b6000612de684828501612b48565b91505092915050565b612df881612a72565b82525050565b6000602082019050612e136000830184612def565b92915050565b60007fff0000000000000000000000000000000000000000000000000000000000000082169050919050565b612e4e81612e19565b82525050565b600081519050919050565b600082825260208201905092915050565b6000819050602082019050919050565b612e8981612a72565b82525050565b6000612e9b8383612e80565b60208301905092915050565b6000602082019050919050565b6000612ebf82612e54565b612ec98185612e5f565b9350612ed483612e70565b8060005b83811015612f05578151612eec8882612e8f565b9750612ef783612ea7565b925050600181019050612ed8565b5085935050505092915050565b600060e082019050612f27600083018a612e45565b8181036020830152612f398189612a17565b90508181036040830152612f4d8188612a17565b9050612f5c6060830187612def565b612f696080830186612b07565b612f7660a0830185612c53565b81810360c0830152612f888184612eb4565b905098975050505050505050565b612f9f8161298a565b8114612faa57600080fd5b50565b600081359050612fbc81612f96565b92915050565b60008060408385031215612fd957612fd86128fb565b5b6000612fe785828601612b48565b9250506020612ff885828601612fad565b9150509250929050565b600080fd5b7f4e487b7100000000000000000000000000000000000000000000000000000000600052604160045260246000fd5b61303f82612a06565b810181811067ffffffffffffffff8211171561305e5761305d613007565b5b80604052505050565b60006130716128f1565b905061307d8282613036565b919050565b600067ffffffffffffffff82111561309d5761309c613007565b5b6130a682612a06565b9050602081019050919050565b82818337600083830152505050565b60006130d56130d084613082565b613067565b9050828152602081018484840111156130f1576130f0613002565b5b6130fc8482856130b3565b509392505050565b600082601f83011261311957613118612ce1565b5b81356131298482602086016130c2565b91505092915050565b6000806000806080858703121561314c5761314b6128fb565b5b600061315a87828801612b48565b945050602061316b87828801612b48565b935050604061317c87828801612a93565b925050606085013567ffffffffffffffff81111561319d5761319c612900565b5b6131a987828801613104565b91505092959194509250565b600080604083850312156131cc576131cb6128fb565b5b60006131da85828601612b48565b92505060206131eb85828601612b48565b9150509250929050565b7f4e487b7100000000000000000000000000000000000000000000000000000000600052602260045260246000fd5b6000600282049050600182168061323c57607f821691505b60208210810361324f5761324e6131f5565b5b50919050565b600060608201905061326a6000830186612b07565b6132776020830185612def565b6132846040830184612b07565b949350505050565b7f496e76616c6964207369676e6174757265206f7220756e617574686f72697a6560008201527f64207369676e6572000000000000000000000000000000000000000000000000602082015250565b60006132e86028836129cb565b91506132f38261328c565b604082019050919050565b60006020820190508181036000830152613317816132db565b9050919050565b7f566f7563686572206e6f7420666f722074686973207573657200000000000000600082015250565b60006133546019836129cb565b915061335f8261331e565b602082019050919050565b6000602082019050818103600083015261338381613347565b9050919050565b600080fd5b600080fd5b600080fd5b600080833560016020038436030381126133b6576133b561338a565b5b80840192508235915067ffffffffffffffff8211156133d8576133d761338f565b5b6020830192506001820236038313156133f4576133f3613394565b5b509250929050565b600081905092915050565b600061341383856133fc565b93506134208385846130b3565b82840190509392505050565b6000613439828688613407565b9150613446828486613407565b915081905095945050505050565b7f436f6e747269627574696f6e20616c7265616479206d696e7465640000000000600082015250565b600061348a601b836129cb565b915061349582613454565b602082019050919050565b600060208201905081810360008301526134b98161347d565b9050919050565b7f4e487b7100000000000000000000000000000000000000000000000000000000600052601160045260246000fd5b60006134fa82612a72565b91507fffffffffffffffffffffffffffffffffffffffffffffffffffffffffffffffff820361352c5761352b6134c0565b5b600182019050919050565b600061354383856129cb565b93506135508385846130b3565b61355983612a06565b840190509392505050565b6000604082019050818103600083015261357f818688613537565b90508181036020830152613594818486613537565b905095945050505050565b60006135aa826129c0565b6135b481856133fc565b93506135c48185602086016129dc565b80840191505092915050565b60006135dc828561359f565b91506135e8828461359f565b91508190509392505050565b600081905092915050565b600061360b83856135f4565b93506136188385846130b3565b82840190509392505050565b60006136318284866135ff565b91508190509392505050565b600060a0820190506136526000830188612c53565b61365f6020830187612c53565b61366c6040830186612c53565b6136796060830185612c53565b6136866080830184612b07565b9695505050505050565b60008190508160005260206000209050919050565b60006020601f8301049050919050565b600082821b905092915050565b6000600883026136f27fffffffffffffffffffffffffffffffffffffffffffffffffffffffffffffffff826136b5565b6136fc86836136b5565b95508019841693508086168417925050509392505050565b6000819050919050565b600061373961373461372f84612a72565b613714565b612a72565b9050919050565b6000819050919050565b6137538361371e565b61376761375f82613740565b8484546136c2565b825550505050565b600090565b61377c61376f565b61378781848461374a565b505050565b5b818110156137ab576137a0600082613774565b60018101905061378d565b5050565b601f8211156137f0576137c181613690565b6137ca846136a5565b810160208510156137d9578190505b6137ed6137e5856136a5565b83018261378c565b50505b505050565b600082821c905092915050565b6000613813600019846008026137f5565b1980831691505092915050565b600061382c8383613802565b9150826002028217905092915050565b613845826129c0565b67ffffffffffffffff81111561385e5761385d613007565b5b6138688254613224565b6138738282856137af565b600060209050601f8311600181146138a65760008415613894578287015190505b61389e8582613820565b865550613906565b601f1984166138b486613690565b60005b828110156138dc578489015182556001820191506020850194506020810190506138b7565b868310156138f957848901516138f5601f891682613802565b8355505b6001600288020188555050505b505050505050565b600081519050919050565b600082825260208201905092915050565b60006139358261390e565b61393f8185613919565b935061394f8185602086016129dc565b61395881612a06565b840191505092915050565b60006080820190506139786000830187612b07565b6139856020830186612b07565b6139926040830185612def565b81810360608301526139a4818461392a565b905095945050505050565b6000815190506139be81612931565b92915050565b6000602082840312156139da576139d96128fb565b5b60006139e8848285016139af565b91505092915050565b6000604082019050613a066000830185612b07565b613a136020830184612def565b9392505050565b6000604082019050613a2f6000830185612b07565b613a3c6020830184612c53565b9392505050565b7f4e487b7100000000000000000000000000000000000000000000000000000000600052601260045260246000fd5b7f4e487b7100000000000000000000000000000000000000000000000000000000600052602160045260246000fd5b600060a082019050613ab66000830188612c53565b613ac36020830187612c53565b613ad06040830186612c53565b613add6060830185612def565b613aea6080830184612b07565b9695505050505050565b600060ff82169050919050565b613b0a81613af4565b82525050565b6000608082019050613b256000830187612c53565b613b326020830186613b01565b613b3f6040830185612c53565b613b4c6060830184612c53565b9594505050505056fea2646970667358221220b2407a2f52c9ea28b4df6c7d6e3006132a1007e21c5a001e51a91362c1c5207264736f6c63430008140033",
  "linkReferences": {},
  "deployedLinkReferences": {}
}